{
  "contractName": "Legitpolls",
  "abi": [
    {
      "anonymous": false,
      "inputs": [
        {
          "indexed": false,
          "internalType": "uint256",
          "name": "id",
          "type": "uint256"
        },
        {
          "indexed": false,
          "internalType": "uint256",
          "name": "noofOptions",
          "type": "uint256"
        },
        {
          "indexed": false,
          "internalType": "address",
          "name": "creator",
          "type": "address"
        },
        {
          "indexed": false,
          "internalType": "string",
          "name": "title",
          "type": "string"
        }
      ],
      "name": "pollCreated",
      "type": "event"
    },
    {
      "anonymous": false,
      "inputs": [
        {
          "indexed": false,
          "internalType": "uint256",
          "name": "id",
          "type": "uint256"
        }
      ],
      "name": "pollVoted",
      "type": "event"
    },
    {
      "constant": true,
      "inputs": [],
      "name": "pCount",
      "outputs": [
        {
          "internalType": "uint256",
          "name": "",
          "type": "uint256"
        }
      ],
      "payable": false,
      "stateMutability": "view",
      "type": "function"
    },
    {
      "constant": true,
      "inputs": [
        {
          "internalType": "uint256",
          "name": "",
          "type": "uint256"
        }
      ],
      "name": "polls",
      "outputs": [
        {
          "internalType": "uint256",
          "name": "id",
          "type": "uint256"
        },
        {
          "internalType": "uint256",
          "name": "noofOptions",
          "type": "uint256"
        },
        {
          "internalType": "address",
          "name": "creator",
          "type": "address"
        },
        {
          "internalType": "string",
          "name": "title",
          "type": "string"
        },
        {
          "internalType": "string",
          "name": "detailsfile",
          "type": "string"
        }
      ],
      "payable": false,
      "stateMutability": "view",
      "type": "function"
    },
    {
      "constant": false,
      "inputs": [
        {
          "internalType": "uint256",
          "name": "_noofOptions",
          "type": "uint256"
        },
        {
          "internalType": "string",
          "name": "_title",
          "type": "string"
        },
        {
          "internalType": "string[]",
          "name": "_options",
          "type": "string[]"
        },
        {
          "internalType": "string",
          "name": "_detailsfile",
          "type": "string"
        }
      ],
      "name": "createPoll",
      "outputs": [],
      "payable": false,
      "stateMutability": "nonpayable",
      "type": "function"
    },
    {
      "constant": false,
      "inputs": [
        {
          "internalType": "uint256",
          "name": "_id",
          "type": "uint256"
        },
        {
          "internalType": "uint256",
          "name": "_option",
          "type": "uint256"
        }
      ],
      "name": "votePoll",
      "outputs": [],
      "payable": false,
      "stateMutability": "nonpayable",
      "type": "function"
    }
  ],
  "bytecode": "0x60806040526000805534801561001457600080fd5b506113cf806100246000396000f3fe608060405234801561001057600080fd5b506004361061004c5760003560e01c806330cad5e214610051578063a29cf45d1461006f578063ac2f00741461008b578063dcb0578d146100bf575b600080fd5b6100596100db565b6040516100669190611114565b60405180910390f35b61008960048036036100849190810190610f8e565b6100e1565b005b6100a560048036036100a09190810190610f65565b6105f2565b6040516100b695949392919061117b565b60405180910390f35b6100d960048036036100d49190810190611039565b610778565b005b60005481565b600184101580156100f3575060048411155b6100fc57600080fd5b600083511161010a57600080fd5b6000808154809291906001019190505550610123610be0565b60016000805481526020019081526020016000206040518060e001604052908160008201548152602001600182015481526020016002820160009054906101000a900473ffffffffffffffffffffffffffffffffffffffff1673ffffffffffffffffffffffffffffffffffffffff1673ffffffffffffffffffffffffffffffffffffffff168152602001600382018054600181600116156101000203166002900480601f0160208091040260200160405190810160405280929190818152602001828054600181600116156101000203166002900480156102455780601f1061021a57610100808354040283529160200191610245565b820191906000526020600020905b81548152906001019060200180831161022857829003601f168201915b5050505050815260200160048201600480602002604051908101604052809291906000905b8282101561031d578382018054600181600116156101000203166002900480601f0160208091040260200160405190810160405280929190818152602001828054600181600116156101000203166002900480156103095780601f106102de57610100808354040283529160200191610309565b820191906000526020600020905b8154815290600101906020018083116102ec57829003601f168201915b50505050508152602001906001019061026a565b50505050815260200160088201600480602002604051908101604052809291908260048015610361576020028201915b81548152602001906001019080831161034d575b50505050508152602001600c82018054600181600116156101000203166002900480601f0160208091040260200160405190810160405280929190818152602001828054600181600116156101000203166002900480156104035780601f106103d857610100808354040283529160200191610403565b820191906000526020600020905b8154815290600101906020018083116103e657829003601f168201915b50505050508152505090506000548160000181815250508481602001818152505033816040019073ffffffffffffffffffffffffffffffffffffffff16908173ffffffffffffffffffffffffffffffffffffffff168152505083816060018190525060008090505b858110156104c55783818151811061047f57fe5b60200260200101518260800151826004811061049757fe5b602002018190525060008260a0015182600481106104b157fe5b60200201818152505080600101905061046b565b50818160c00181905250806001600080548152602001908152602001600020600082015181600001556020820151816001015560408201518160020160006101000a81548173ffffffffffffffffffffffffffffffffffffffff021916908373ffffffffffffffffffffffffffffffffffffffff160217905550606082015181600301908051906020019061055b929190610c3f565b50608082015181600401906004610573929190610cbf565b5060a08201518160080190600461058b929190610d12565b5060c082015181600c0190805190602001906105a8929190610c3f565b509050507fc504d9ec32644c55801c38afe2a56cc0b06be98d7fe9debdab0fcf28fa99cf7d6000548633876040516105e3949392919061112f565b60405180910390a15050505050565b60016020528060005260406000206000915090508060000154908060010154908060020160009054906101000a900473ffffffffffffffffffffffffffffffffffffffff1690806003018054600181600116156101000203166002900480601f0160208091040260200160405190810160405280929190818152602001828054600181600116156101000203166002900480156106d05780601f106106a5576101008083540402835291602001916106d0565b820191906000526020600020905b8154815290600101906020018083116106b357829003601f168201915b50505050509080600c018054600181600116156101000203166002900480601f01602080910402602001604051908101604052809291908181526020018280546001816001161561010002031660029004801561076e5780601f106107435761010080835404028352916020019161076e565b820191906000526020600020905b81548152906001019060200180831161075157829003601f168201915b5050505050905085565b60008211801561078a57506000548211155b61079357600080fd5b61079b610be0565b60016000805481526020019081526020016000206040518060e001604052908160008201548152602001600182015481526020016002820160009054906101000a900473ffffffffffffffffffffffffffffffffffffffff1673ffffffffffffffffffffffffffffffffffffffff1673ffffffffffffffffffffffffffffffffffffffff168152602001600382018054600181600116156101000203166002900480601f0160208091040260200160405190810160405280929190818152602001828054600181600116156101000203166002900480156108bd5780601f10610892576101008083540402835291602001916108bd565b820191906000526020600020905b8154815290600101906020018083116108a057829003601f168201915b5050505050815260200160048201600480602002604051908101604052809291906000905b82821015610995578382018054600181600116156101000203166002900480601f0160208091040260200160405190810160405280929190818152602001828054600181600116156101000203166002900480156109815780601f1061095657610100808354040283529160200191610981565b820191906000526020600020905b81548152906001019060200180831161096457829003601f168201915b5050505050815260200190600101906108e2565b505050508152602001600882016004806020026040519081016040528092919082600480156109d9576020028201915b8154815260200190600101908083116109c5575b50505050508152602001600c82018054600181600116156101000203166002900480601f016020809104026020016040519081016040528092919081815260200182805460018160011615610100020316600290048015610a7b5780601f10610a5057610100808354040283529160200191610a7b565b820191906000526020600020905b815481529060010190602001808311610a5e57829003601f168201915b505050505081525050905060018210158015610a9b575080602001518211155b610aa457600080fd5b8060a001516001830360048110610ab757fe5b60200201805180919060010181525050806001600080548152602001908152602001600020600082015181600001556020820151816001015560408201518160020160006101000a81548173ffffffffffffffffffffffffffffffffffffffff021916908373ffffffffffffffffffffffffffffffffffffffff1602179055506060820151816003019080519060200190610b53929190610c3f565b50608082015181600401906004610b6b929190610cbf565b5060a082015181600801906004610b83929190610d12565b5060c082015181600c019080519060200190610ba0929190610c3f565b509050507f2b5a81c778b2b657a6792bbc182a27c2a2ea4b8a4b9ab5aaeafab46fa95cdef083604051610bd39190611114565b60405180910390a1505050565b6040518060e001604052806000815260200160008152602001600073ffffffffffffffffffffffffffffffffffffffff16815260200160608152602001610c25610d52565b8152602001610c32610d79565b8152602001606081525090565b828054600181600116156101000203166002900490600052602060002090601f016020900481019282601f10610c8057805160ff1916838001178555610cae565b82800160010185558215610cae579182015b82811115610cad578251825591602001919060010190610c92565b5b509050610cbb9190610d9b565b5090565b8260048101928215610d01579160200282015b82811115610d00578251829080519060200190610cf0929190610c3f565b5091602001919060010190610cd2565b5b509050610d0e9190610dc0565b5090565b8260048101928215610d41579160200282015b82811115610d40578251825591602001919060010190610d25565b5b509050610d4e9190610d9b565b5090565b60405180608001604052806004905b6060815260200190600190039081610d615790505090565b6040518060800160405280600490602082028038833980820191505090505090565b610dbd91905b80821115610db9576000816000905550600101610da1565b5090565b90565b610de991905b80821115610de55760008181610ddc9190610dec565b50600101610dc6565b5090565b90565b50805460018160011615610100020316600290046000825580601f10610e125750610e31565b601f016020900490600052602060002090810190610e309190610d9b565b5b50565b600082601f830112610e4557600080fd5b8135610e58610e5382611209565b6111dc565b9150818183526020840193506020810190508360005b83811015610e9e5781358601610e848882610ea8565b845260208401935060208301925050600181019050610e6e565b5050505092915050565b600082601f830112610eb957600080fd5b8135610ecc610ec782611231565b6111dc565b91508082526020830160208301858383011115610ee857600080fd5b610ef3838284611322565b50505092915050565b600082601f830112610f0d57600080fd5b8135610f20610f1b8261125d565b6111dc565b91508082526020830160208301858383011115610f3c57600080fd5b610f47838284611322565b50505092915050565b600081359050610f5f81611375565b92915050565b600060208284031215610f7757600080fd5b6000610f8584828501610f50565b91505092915050565b60008060008060808587031215610fa457600080fd5b6000610fb287828801610f50565b945050602085013567ffffffffffffffff811115610fcf57600080fd5b610fdb87828801610efc565b935050604085013567ffffffffffffffff811115610ff857600080fd5b61100487828801610e34565b925050606085013567ffffffffffffffff81111561102157600080fd5b61102d87828801610efc565b91505092959194509250565b6000806040838503121561104c57600080fd5b600061105a85828601610f50565b925050602061106b85828601610f50565b9150509250929050565b61107e816112ec565b82525050565b61108d816112b0565b82525050565b600061109e82611294565b6110a8818561129f565b93506110b8818560208601611331565b6110c181611364565b840191505092915050565b60006110d782611289565b6110e1818561129f565b93506110f1818560208601611331565b6110fa81611364565b840191505092915050565b61110e816112e2565b82525050565b60006020820190506111296000830184611105565b92915050565b60006080820190506111446000830187611105565b6111516020830186611105565b61115e6040830185611075565b81810360608301526111708184611093565b905095945050505050565b600060a0820190506111906000830188611105565b61119d6020830187611105565b6111aa6040830186611084565b81810360608301526111bc81856110cc565b905081810360808301526111d081846110cc565b90509695505050505050565b6000604051905081810181811067ffffffffffffffff821117156111ff57600080fd5b8060405250919050565b600067ffffffffffffffff82111561122057600080fd5b602082029050602081019050919050565b600067ffffffffffffffff82111561124857600080fd5b601f19601f8301169050602081019050919050565b600067ffffffffffffffff82111561127457600080fd5b601f19601f8301169050602081019050919050565b600081519050919050565b600081519050919050565b600082825260208201905092915050565b60006112bb826112c2565b9050919050565b600073ffffffffffffffffffffffffffffffffffffffff82169050919050565b6000819050919050565b60006112f7826112fe565b9050919050565b600061130982611310565b9050919050565b600061131b826112c2565b9050919050565b82818337600083830152505050565b60005b8381101561134f578082015181840152602081019050611334565b8381111561135e576000848401525b50505050565b6000601f19601f8301169050919050565b61137e816112e2565b811461138957600080fd5b5056fea365627a7a72315820f96eca07a4c07d91db0dd58587bfc6978f27180cec9f2b53ffbc4ce886f58e5d6c6578706572696d656e74616cf564736f6c63430005100040",
  "source": "pragma solidity ^0.5.0;\r\npragma experimental ABIEncoderV2;\r\n\r\ncontract Legitpolls {\r\n    uint public pCount=0;\r\n    mapping(uint => Poll) public polls;\r\n\r\n    struct Poll {\r\n        uint id;\r\n        uint noofOptions;\r\n        address creator;\r\n        string title;\r\n        string[4] options;\r\n        uint[4] votes;\r\n        string detailsfile;\r\n    }\r\n\r\n    event pollCreated(\r\n        uint id,\r\n        uint noofOptions,\r\n        address creator,\r\n        string title\r\n    );\r\n\r\n    event pollVoted(\r\n        uint id\r\n    );\r\n \r\n    function createPoll(uint _noofOptions, string memory _title, string[] memory _options, string memory _detailsfile) public {\r\n        require(_noofOptions>=1 && _noofOptions <= 4);\r\n        require(bytes(_title).length > 0);\r\n        pCount++;        \r\n        Poll memory _p = polls[pCount];\r\n        _p.id=pCount;\r\n        _p.noofOptions=_noofOptions;\r\n        _p.creator=msg.sender;\r\n        _p.title=_title;\r\n        for(uint i=0; i<_noofOptions; ++i) {\r\n            _p.options[i]=_options[i];\r\n            _p.votes[i]=0;\r\n        }\r\n        _p.detailsfile=_detailsfile;\r\n        polls[pCount] = _p;\r\n        emit pollCreated(pCount, _noofOptions, msg.sender, _title);\r\n    }\r\n\r\n    function votePoll(uint _id, uint _option) public {\r\n        require(_id > 0 && _id <= pCount);\r\n        Poll memory _p = polls[pCount];\r\n        require(_option >= 1 && _option <=_p.noofOptions);\r\n        _p.votes[_option-1]++;\r\n        polls[pCount] = _p;\r\n        emit pollVoted(_id);\r\n    }\r\n}\r\n",
  "sourcePath": "E:\\CS\\Hackathons\\HackGujarat\\projectver1\\src\\contracts\\Legitpolls.sol",
  "compiler": {
    "name": "solc",
    "version": "0.5.16+commit.9c3226ce.Emscripten.clang"
  },
  "schemaVersion": "3.2.0",
  "updatedAt": "2020-09-05T16:01:53.708Z",
  "devdoc": {
    "methods": {}
  },
  "userdoc": {
    "methods": {}
  }
}