{
  "contractName": "Legitpolls",
  "abi": [
    {
      "anonymous": false,
      "inputs": [
        {
          "indexed": false,
          "internalType": "uint256",
          "name": "id",
          "type": "uint256"
        },
        {
          "indexed": false,
          "internalType": "address",
          "name": "creator",
          "type": "address"
        },
        {
          "indexed": false,
          "internalType": "string",
          "name": "title",
          "type": "string"
        },
        {
          "indexed": false,
          "internalType": "string",
          "name": "option1",
          "type": "string"
        },
        {
          "indexed": false,
          "internalType": "string",
          "name": "option2",
          "type": "string"
        },
        {
          "indexed": false,
          "internalType": "uint256",
          "name": "votes1",
          "type": "uint256"
        },
        {
          "indexed": false,
          "internalType": "uint256",
          "name": "votes2",
          "type": "uint256"
        },
        {
          "indexed": false,
          "internalType": "string",
          "name": "detailsfile",
          "type": "string"
        }
      ],
      "name": "pollCreated",
      "type": "event"
    },
    {
      "anonymous": false,
      "inputs": [
        {
          "indexed": false,
          "internalType": "uint256",
          "name": "id",
          "type": "uint256"
        }
      ],
      "name": "pollVoted",
      "type": "event"
    },
    {
      "constant": true,
      "inputs": [],
      "name": "pCount",
      "outputs": [
        {
          "internalType": "uint256",
          "name": "",
          "type": "uint256"
        }
      ],
      "payable": false,
      "stateMutability": "view",
      "type": "function"
    },
    {
      "constant": true,
      "inputs": [
        {
          "internalType": "uint256",
          "name": "",
          "type": "uint256"
        }
      ],
      "name": "polls",
      "outputs": [
        {
          "internalType": "uint256",
          "name": "id",
          "type": "uint256"
        },
        {
          "internalType": "address",
          "name": "creator",
          "type": "address"
        },
        {
          "internalType": "string",
          "name": "title",
          "type": "string"
        },
        {
          "internalType": "string",
          "name": "option1",
          "type": "string"
        },
        {
          "internalType": "string",
          "name": "option2",
          "type": "string"
        },
        {
          "internalType": "uint256",
          "name": "votes1",
          "type": "uint256"
        },
        {
          "internalType": "uint256",
          "name": "votes2",
          "type": "uint256"
        },
        {
          "internalType": "string",
          "name": "detailsfile",
          "type": "string"
        }
      ],
      "payable": false,
      "stateMutability": "view",
      "type": "function"
    },
    {
      "constant": false,
      "inputs": [
        {
          "internalType": "string",
          "name": "_title",
          "type": "string"
        },
        {
          "internalType": "string",
          "name": "_option1",
          "type": "string"
        },
        {
          "internalType": "string",
          "name": "_option2",
          "type": "string"
        },
        {
          "internalType": "string",
          "name": "_detailsfile",
          "type": "string"
        }
      ],
      "name": "createPoll",
      "outputs": [],
      "payable": false,
      "stateMutability": "nonpayable",
      "type": "function"
    },
    {
      "constant": false,
      "inputs": [
        {
          "internalType": "uint256",
          "name": "_id",
          "type": "uint256"
        },
        {
          "internalType": "uint256",
          "name": "_option",
          "type": "uint256"
        }
      ],
      "name": "votePoll",
      "outputs": [],
      "payable": false,
      "stateMutability": "nonpayable",
      "type": "function"
    }
  ],
  "bytecode": "0x60806040526000805534801561001457600080fd5b50611179806100246000396000f3fe608060405234801561001057600080fd5b506004361061004c5760003560e01c806330cad5e2146100515780636d5b622f1461006f578063ac2f0074146102ef578063dcb0578d14610522575b600080fd5b61005961055a565b6040518082815260200191505060405180910390f35b6102ed6004803603608081101561008557600080fd5b81019080803590602001906401000000008111156100a257600080fd5b8201836020820111156100b457600080fd5b803590602001918460018302840111640100000000831117156100d657600080fd5b91908080601f016020809104026020016040519081016040528093929190818152602001838380828437600081840152601f19601f8201169050808301925050505050505091929192908035906020019064010000000081111561013957600080fd5b82018360208201111561014b57600080fd5b8035906020019184600183028401116401000000008311171561016d57600080fd5b91908080601f016020809104026020016040519081016040528093929190818152602001838380828437600081840152601f19601f820116905080830192505050505050509192919290803590602001906401000000008111156101d057600080fd5b8201836020820111156101e257600080fd5b8035906020019184600183028401116401000000008311171561020457600080fd5b91908080601f016020809104026020016040519081016040528093929190818152602001838380828437600081840152601f19601f8201169050808301925050505050505091929192908035906020019064010000000081111561026757600080fd5b82018360208201111561027957600080fd5b8035906020019184600183028401116401000000008311171561029b57600080fd5b91908080601f016020809104026020016040519081016040528093929190818152602001838380828437600081840152601f19601f820116905080830192505050505050509192919290505050610560565b005b61031b6004803603602081101561030557600080fd5b81019080803590602001909291905050506108fb565b604051808981526020018873ffffffffffffffffffffffffffffffffffffffff1673ffffffffffffffffffffffffffffffffffffffff1681526020018060200180602001806020018781526020018681526020018060200185810385528b818151815260200191508051906020019080838360005b838110156103ab578082015181840152602081019050610390565b50505050905090810190601f1680156103d85780820380516001836020036101000a031916815260200191505b5085810384528a818151815260200191508051906020019080838360005b838110156104115780820151818401526020810190506103f6565b50505050905090810190601f16801561043e5780820380516001836020036101000a031916815260200191505b50858103835289818151815260200191508051906020019080838360005b8381101561047757808201518184015260208101905061045c565b50505050905090810190601f1680156104a45780820380516001836020036101000a031916815260200191505b50858103825286818151815260200191508051906020019080838360005b838110156104dd5780820151818401526020810190506104c2565b50505050905090810190601f16801561050a5780820380516001836020036101000a031916815260200191505b509c5050505050505050505050505060405180910390f35b6105586004803603604081101561053857600080fd5b810190808035906020019092919080359060200190929190505050610bc3565b005b60005481565b600084511161056e57600080fd5b600080815480929190600101919050555060405180610100016040528060005481526020013373ffffffffffffffffffffffffffffffffffffffff16815260200185815260200184815260200183815260200160008152602001600081526020018281525060016000805481526020019081526020016000206000820151816000015560208201518160010160006101000a81548173ffffffffffffffffffffffffffffffffffffffff021916908373ffffffffffffffffffffffffffffffffffffffff1602179055506040820151816002019080519060200190610654929190611044565b506060820151816003019080519060200190610671929190611044565b50608082015181600401908051906020019061068e929190611044565b5060a0820151816005015560c0820151816006015560e08201518160070190805190602001906106bf929190611044565b509050507f1c6ab26faf45f5d0b8b14ddb6588849060256e665dcf2c3d7470dca6720a5b026000543386868660008088604051808981526020018873ffffffffffffffffffffffffffffffffffffffff1673ffffffffffffffffffffffffffffffffffffffff1681526020018060200180602001806020018781526020018681526020018060200185810385528b818151815260200191508051906020019080838360005b8381101561077f578082015181840152602081019050610764565b50505050905090810190601f1680156107ac5780820380516001836020036101000a031916815260200191505b5085810384528a818151815260200191508051906020019080838360005b838110156107e55780820151818401526020810190506107ca565b50505050905090810190601f1680156108125780820380516001836020036101000a031916815260200191505b50858103835289818151815260200191508051906020019080838360005b8381101561084b578082015181840152602081019050610830565b50505050905090810190601f1680156108785780820380516001836020036101000a031916815260200191505b50858103825286818151815260200191508051906020019080838360005b838110156108b1578082015181840152602081019050610896565b50505050905090810190601f1680156108de5780820380516001836020036101000a031916815260200191505b509c5050505050505050505050505060405180910390a150505050565b60016020528060005260406000206000915090508060000154908060010160009054906101000a900473ffffffffffffffffffffffffffffffffffffffff1690806002018054600181600116156101000203166002900480601f0160208091040260200160405190810160405280929190818152602001828054600181600116156101000203166002900480156109d35780601f106109a8576101008083540402835291602001916109d3565b820191906000526020600020905b8154815290600101906020018083116109b657829003601f168201915b505050505090806003018054600181600116156101000203166002900480601f016020809104026020016040519081016040528092919081815260200182805460018160011615610100020316600290048015610a715780601f10610a4657610100808354040283529160200191610a71565b820191906000526020600020905b815481529060010190602001808311610a5457829003601f168201915b505050505090806004018054600181600116156101000203166002900480601f016020809104026020016040519081016040528092919081815260200182805460018160011615610100020316600290048015610b0f5780601f10610ae457610100808354040283529160200191610b0f565b820191906000526020600020905b815481529060010190602001808311610af257829003601f168201915b505050505090806005015490806006015490806007018054600181600116156101000203166002900480601f016020809104026020016040519081016040528092919081815260200182805460018160011615610100020316600290048015610bb95780601f10610b8e57610100808354040283529160200191610bb9565b820191906000526020600020905b815481529060010190602001808311610b9c57829003601f168201915b5050505050905088565b600082118015610bd557506000548211155b610bde57600080fd5b610be66110c4565b6001600084815260200190815260200160002060405180610100016040529081600082015481526020016001820160009054906101000a900473ffffffffffffffffffffffffffffffffffffffff1673ffffffffffffffffffffffffffffffffffffffff1673ffffffffffffffffffffffffffffffffffffffff168152602001600282018054600181600116156101000203166002900480601f016020809104026020016040519081016040528092919081815260200182805460018160011615610100020316600290048015610cfe5780601f10610cd357610100808354040283529160200191610cfe565b820191906000526020600020905b815481529060010190602001808311610ce157829003601f168201915b50505050508152602001600382018054600181600116156101000203166002900480601f016020809104026020016040519081016040528092919081815260200182805460018160011615610100020316600290048015610da05780601f10610d7557610100808354040283529160200191610da0565b820191906000526020600020905b815481529060010190602001808311610d8357829003601f168201915b50505050508152602001600482018054600181600116156101000203166002900480601f016020809104026020016040519081016040528092919081815260200182805460018160011615610100020316600290048015610e425780601f10610e1757610100808354040283529160200191610e42565b820191906000526020600020905b815481529060010190602001808311610e2557829003601f168201915b505050505081526020016005820154815260200160068201548152602001600782018054600181600116156101000203166002900480601f016020809104026020016040519081016040528092919081815260200182805460018160011615610100020316600290048015610ef85780601f10610ecd57610100808354040283529160200191610ef8565b820191906000526020600020905b815481529060010190602001808311610edb57829003601f168201915b50505050508152505090506001821480610f125750600282145b610f1b57600080fd5b6001821415610f35578060a0018051809190600101815250505b6002821415610f4f578060c0018051809190600101815250505b80600160008581526020019081526020016000206000820151816000015560208201518160010160006101000a81548173ffffffffffffffffffffffffffffffffffffffff021916908373ffffffffffffffffffffffffffffffffffffffff1602179055506040820151816002019080519060200190610fd0929190611044565b506060820151816003019080519060200190610fed929190611044565b50608082015181600401908051906020019061100a929190611044565b5060a0820151816005015560c0820151816006015560e082015181600701908051906020019061103b929190611044565b50905050505050565b828054600181600116156101000203166002900490600052602060002090601f016020900481019282601f1061108557805160ff19168380011785556110b3565b828001600101855582156110b3579182015b828111156110b2578251825591602001919060010190611097565b5b5090506110c0919061111f565b5090565b60405180610100016040528060008152602001600073ffffffffffffffffffffffffffffffffffffffff1681526020016060815260200160608152602001606081526020016000815260200160008152602001606081525090565b61114191905b8082111561113d576000816000905550600101611125565b5090565b9056fea265627a7a7231582003c92212f723d6e9669bc27f2a1e23699ca845b3fe5be28b625e0fe8cf2ee48f64736f6c63430005100032",
  "source": "pragma solidity ^0.5.0;\r\n\r\ncontract Legitpolls {\r\n    uint public pCount=0;\r\n    mapping(uint => Poll) public polls;\r\n\r\n    struct Poll {\r\n        uint id;\r\n        address creator;\r\n        string title;\r\n        string option1;\r\n        string option2;\r\n        uint votes1;\r\n        uint votes2;\r\n        string detailsfile;\r\n    }\r\n\r\n    event pollCreated(\r\n        uint id,\r\n        address creator,\r\n        string title,\r\n        string option1,\r\n        string option2,\r\n        uint votes1,\r\n        uint votes2,\r\n        string detailsfile\r\n    );\r\n\r\n    event pollVoted(\r\n        uint id\r\n    );\r\n \r\n    function createPoll(string memory _title, string memory _option1, string memory _option2, string memory _detailsfile) public {\r\n        require(bytes(_title).length > 0);\r\n        pCount++;        \r\n        polls[pCount] = Poll(pCount, msg.sender, _title, _option1, _option2, 0, 0, _detailsfile);\r\n        emit pollCreated(pCount, msg.sender, _title, _option1, _option2, 0, 0, _detailsfile);\r\n    }\r\n\r\n    function votePoll(uint _id, uint _option) public {\r\n        require(_id > 0 && _id <= pCount);\r\n        Poll memory _p = polls[_id];\r\n        require(_option == 1 || _option == 2);\r\n        if(_option==1){\r\n            _p.votes1++;\r\n        }\r\n        if(_option==2){\r\n            _p.votes2++;\r\n        }\r\n        polls[_id] = _p;\r\n        \r\n    }\r\n}\r\n",
  "sourcePath": "E:\\CS\\Hackathons\\HackGujarat\\projectver1\\src\\contracts\\Legitpolls.sol",
  "compiler": {
    "name": "solc",
    "version": "0.5.16+commit.9c3226ce.Emscripten.clang"
  },
  "schemaVersion": "3.2.0",
  "updatedAt": "2020-09-06T08:41:43.455Z",
  "networkType": "ethereum",
  "devdoc": {
    "methods": {}
  },
  "userdoc": {
    "methods": {}
  }
}